:100000000C9434000C9440000C943E000C943E0080
:100010000C943E000C943E000C943E000C943E0068
:100020000C943E000C943E000C943E000C943E0058
:100030000C943E000C943E000C943E000C943E0048
:100040000C943E000C943E000C943E000C943E0038
:100050000C943E000C943E000C943E000C943E0028
:100060000C943E000C943E0011241FBECFEFD4E050
:10007000DEBFCDBF0E944F000C9463000C940000C3
:100080001F920F920FB60F9211244A9902C0299A1B
:1000900001C029980F900FBE0F901F9018958FEFF9
:1000A00084B95A9AE89A80916900816080936900C6
:1000B000789420E533EC41E0C9010197F1F785B16F
:0A00C000842785B9F9CFF894FFCF2B
:00000001FF
