:100000000C9434000C943E000C943E000C943E0082
:100010000C943E000C943E000C943E000C943E0068
:100020000C943E000C943E000C943E000C943E0058
:100030000C943E000C943E000C943E000C943E0048
:100040000C943E000C943E000C943E000C943E0038
:100050000C943E000C943E000C943E000C943E0028
:100060000C943E000C943E0011241FBECFEFD4E050
:10007000DEBFCDBF0E944E000C9463000C940000C4
:100080004A9B02C080E008958AEF90E00197F1F763
:1000900089B1869586958095817008950F931F93F9
:1000A0005A9A81E084B911E001E00E94400088235F
:1000B00011F410E0FACF812F11E08823B1F785B158
:0A00C000802785B9F2CFF894FFCF36
:00000001FF
