:100000000C9434000C9451000C9451000C94510049
:100010000C9453000C9451000C9451000C9451001A
:100020000C9451000C9451000C9451000C9451000C
:100030000C9451000C9451000C9451000C945100FC
:100040000C9451000C9451000C9451000C945100EC
:100050000C9451000C9451000C9451000C945100DC
:100060000C9451000C94510011241FBECFEFD4E02A
:10007000DEBFCDBF11E0A0E0B1E0EEE6F2E002C0ED
:1000800005900D92A831B107D9F711E0A8E1B1E0D0
:1000900001C01D92AA31B107E1F70E946D000C94D6
:1000A00035010C9400001F920F920FB60F9211248D
:1000B0008F939F93809118019091190101969093CD
:1000C000190180931801399A3998D99A9F918F9183
:1000D0000F900FBE0F901F9018951F93CF93DF9333
:1000E00080E090E020E80FB6F894209361008093C0
:1000F00061000FBE85B7806185BF419A809168001D
:1001000082608093680080916C00826080936C00B4
:1001100081E084B90E94B20080E091E00E94C300B7
:10012000C4EDD0E311E01092190110921801399A30
:100130007894CE010197F1F7F8948091180190918D
:100140001901805E9E4210F415B901C015B8809166
:100150001801909119010E94D40084E191E00E945D
:10016000C300E1CF1092C5008CE08093C400E0ECA6
:10017000F0E080818260808388E18093C10086E026
:100180008093C2000895AC0120E007C08091C000B8
:1001900085FFFCCFE093C6002F5FFA01E20FF11D4F
:1001A000E081EE2399F708959C018091C00085FFBE
:1001B000FCCFC90160E177E20E942101605D60939C
:1001C000C6008091C00085FFFCCFC90168EE73E0D6
:1001D0000E942101CB016AE070E00E942101805D54
:1001E0008093C6008091C00085FFFCCFC90164E602
:1001F00070E00E942101CB016AE070E00E942101C1
:10020000805D8093C6008091C00085FFFCCFC9014E
:100210006AE070E00E942101CB016AE070E00E9478
:100220002101805D8093C6008091C00085FFFCCFD6
:10023000C9016AE070E00E942101805D8093C600E0
:100240000895AA1BBB1B51E107C0AA1FBB1FA6171D
:10025000B70710F0A61BB70B881F991F5A95A9F76F
:0E02600080959095BC01CD010895F894FFCFD4
:10026E00436170616369746976652053656E736F5F
:08027E00720D0A000D0A0000D8
:00000001FF
