:100000000C9434000C9451000C9451000C94510049
:100010000C9453000C9451000C9451000C9451001A
:100020000C9451000C9451000C9451000C9451000C
:100030000C9451000C9451000C9451000C945100FC
:100040000C9451000C9451000C9451000C945100EC
:100050000C9451000C9451000C9451000C945100DC
:100060000C9451000C94510011241FBECFEFD4E02A
:10007000DEBFCDBF11E0A0E0B1E0E6E6F2E002C0F5
:1000800005900D92A430B107D9F711E0A4E0B1E0DA
:1000900001C01D92A630B107E1F70E946D000C94DB
:1000A00031010C9400001F920F920FB60F92112491
:1000B0008F939F93809104019091050101969093F5
:1000C000050180930401399A3998D99A9F918F91AB
:1000D0000F900FBE0F901F9018951F93CF93DF9333
:1000E00080E090E020E80FB6F894209361008093C0
:1000F00061000FBE85B7806185BF419A809168001D
:1001000082608093680080916C00826080936C00B4
:1001100081E084B90E94AE00C4EDD0E311E01092FA
:10012000050110920401399A7894CE010197F1F7F4
:10013000F89480910401909105018057974110F443
:1001400015B901C015B880910401909105010E9474
:10015000D00080E091E00E94BF00E1CF1092C50086
:100160008CE08093C400E0ECF0E0808182608083CA
:1001700088E18093C10086E08093C2000895AC01BD
:1001800020E007C08091C00085FFFCCFE093C6004F
:100190002F5FFA01E20FF11DE081EE2399F7089538
:1001A0009C018091C00085FFFCCFC90160E177E22E
:1001B0000E941D01605D6093C6008091C00085FFB4
:1001C000FCCFC90168EE73E00E941D01CB016AE01B
:1001D00070E00E941D01805D8093C6008091C00088
:1001E00085FFFCCFC90164E670E00E941D01CB01D0
:1001F0006AE070E00E941D01805D8093C6008091DE
:10020000C00085FFFCCFC9016AE070E00E941D01BB
:10021000CB016AE070E00E941D01805D8093C60002
:100220008091C00085FFFCCFC9016AE070E00E94A8
:100230001D01805D8093C6000895AA1BBB1B51E180
:1002400007C0AA1FBB1FA617B70710F0A61BB70B46
:10025000881F991F5A95A9F780959095BC01CD01EB
:060260000895F894FFCFA1
:040266000D0A00007D
:00000001FF
