:100000000C9434000C9446000C9446000C9446006A
:100010000C947A000C9446000C9446000C94460014
:100020000C9446000C9446000C9446000C94460038
:100030000C9446000C9446000C9446000C94460028
:100040000C9446000C9446000C9446000C94460018
:100050000C9446000C9446000C9446000C94460008
:100060000C9446000C94460011241FBECFEFD4E040
:10007000DEBFCDBF11E0A0E0B1E001C01D92A23013
:10008000B107E1F70E9448000C9494000C94000022
:1000900080E090E020E80FB6F89420936100809310
:1000A00061000FBE85B7806185BF419A809168006D
:1000B00082608093680080916C00826080936C0005
:1000C00081E084B924ED30E341E010920101109207
:1000D0000001399A7894C9010197F1F7F894809159
:1000E0000001909101018057974110F445B9EDCF7F
:1000F00015B8EBCF1F920F920FB60F9211248F936A
:100100009F938091000190910101019690930101CC
:1001100080930001399A3998D99A9F918F910F90C5
:0C0120000FBE0F901F901895F894FFCFB1
:00000001FF
