:100000000C9434000C943E000C943E000C943E0082
:100010000C943E000C943E000C943E000C943E0068
:100020000C943E000C943E000C943E000C943E0058
:100030000C943E000C943E000C943E000C943E0048
:100040000C943E000C943E000C943E000C943E0038
:100050000C943E000C943E000C943E000C943E0028
:100060000C943E000C943E0011241FBECFEFD4E050
:10007000DEBFCDBF0E9440000C947B000C940000BA
:1000800080917C00806480937C0080917A00836002
:1000900080937A0080917A00806880937A008FEF55
:1000A00084B9E1E0F0E064ED70E380917A0080646F
:1000B00080937A0080917A0086FDFCCF8091780051
:1000C00090917900880F892F881F990B9195482F5F
:1000D00015B830E025B1CF01032E02C0880F991F5B
:1000E0000A94E2F7282B25B93F5F431798F7CB0115
:0A00F0000197F1F7DACFF894FFCF83
:00000001FF
