:100000000C9434000C943E000C943E000C943E0082
:100010000C943E000C943E000C943E000C943E0068
:100020000C943E000C943E000C943E000C943E0058
:100030000C943E000C943E000C943E000C943E0048
:100040000C943E000C943E000C943E000C943E0038
:100050000C943E000C943E000C943E000C943E0028
:100060000C943E000C943E0011241FBECFEFD4E050
:10007000DEBFCDBF0E9440000C9481000C940000B4
:100080001F93CF93DF935A9A81E084B985B988E8AA
:1000900093E129E130E0F9013197F1F70197D9F7C0
:1000A00028980E94680080E30E94790011E0C9E16D
:1000B000D0E04A99FECF88E50E94790015B988E81A
:1000C00093E1FE013197F1F70197D9F72898F1CF25
:1000D0001092C5008CE08093C400E0ECF0E08081D9
:1000E0008260808388E18093C10086E08093C200B3
:1000F0000895982F8091C00085FFFCCF9093C60093
:060100000895F894FFCF02
:00000001FF
