:100000000C9434000C9449000C9449000C94490061
:100010000C9449000C9449000C9449000C9449003C
:100020000C9449000C9449000C9449000C9449002C
:100030000C9449000C9449000C9449000C9449001C
:100040000C9449000C9449000C9449000C9449000C
:100050000C9449000C9449000C9449000C944900FC
:100060000C9449000C94490011241FBECFEFD4E03A
:10007000DEBFCDBF11E0A0E0B1E0E2E5F2E002C0FA
:1000800005900D92A437B107D9F70E9461000C9436
:1000900027010C94000080E197E229E130E0F901AA
:1000A0003197F1F70197D9F78091840090918500FD
:1000B00024EC39E003C0F9013197F1F78150D9F709
:1000C00008951F930E949D0080918100836080931A
:1000D000810081E084B95A9A80E091E00E94B500E5
:1000E00084E191E00E94B50011E00E94AE008EE232
:1000F00091E00E94B5000E944B008BE391E00E94CA
:10010000B50015B910928500109284004A99FECF6F
:10011000809184009091850024E0969587952A959A
:10012000E1F70E94C60083E491E00E94B50015B893
:1001300083E591E00E94B500D8CF1092C5008CE015
:100140008093C400E0ECF0E080818260808388E1ED
:100150008093C10086E08093C20008958091C00022
:1001600087FFFCCF8091C6000895AC0120E007C056
:100170008091C00085FFFCCFE093C6002F5FFA019D
:10018000E20FF11DE081EE2399F708959C01809123
:10019000C00085FFFCCFC90160E177E20E94130136
:1001A000605D6093C6008091C00085FFFCCFC901EF
:1001B00068EE73E00E941301CB016AE070E00E94D8
:1001C0001301805D8093C6008091C00085FFFCCF45
:1001D000C90164E670E00E941301CB016AE070E09F
:1001E0000E941301805D8093C6008091C00085FF4E
:1001F000FCCFC9016AE070E00E941301CB016AE004
:1002000070E00E941301805D8093C6008091C00061
:1002100085FFFCCFC9016AE070E00E941301805D98
:100220008093C6000895AA1BBB1B51E107C0AA1FFB
:10023000BB1FA617B70710F0A61BB70B881F991F87
:100240005A95A9F780959095BC01CD010895F89431
:02025000FFCFDE
:100252000D0A5265616374696F6E2054696D65722F
:100262003A0D0A00507265737320616E79206B65D6
:100272007920746F2073746172742E0D0A004765C1
:10028200742072656164792E2E2E000D0A476F214B
:100292000D0A00206D696C6C697365636F6E64731F
:1002A2000D0A000D0A507265737320616E79206B1E
:1002B200657920746F2074727920616761696E2E8E
:0402C2000D0A000021
:00000001FF
